{
  "_format": "hh-sol-artifact-1",
  "contractName": "Endoweth",
  "sourceName": "contracts/Endoweth.sol",
  "abi": [
    {
      "inputs": [
        {
          "internalType": "address",
          "name": "_owner",
          "type": "address"
        },
        {
          "internalType": "address",
          "name": "_endowee",
          "type": "address"
        },
        {
          "internalType": "uint256",
          "name": "_distributionInterval",
          "type": "uint256"
        }
      ],
      "stateMutability": "nonpayable",
      "type": "constructor"
    },
    {
      "inputs": [
        {
          "internalType": "address",
          "name": "owner",
          "type": "address"
        }
      ],
      "name": "OwnableInvalidOwner",
      "type": "error"
    },
    {
      "inputs": [
        {
          "internalType": "address",
          "name": "account",
          "type": "address"
        }
      ],
      "name": "OwnableUnauthorizedAccount",
      "type": "error"
    },
    {
      "anonymous": false,
      "inputs": [
        {
          "indexed": false,
          "internalType": "address",
          "name": "token",
          "type": "address"
        },
        {
          "indexed": false,
          "internalType": "uint256",
          "name": "amount",
          "type": "uint256"
        }
      ],
      "name": "Distributed",
      "type": "event"
    },
    {
      "anonymous": false,
      "inputs": [
        {
          "indexed": false,
          "internalType": "uint256",
          "name": "newInterval",
          "type": "uint256"
        }
      ],
      "name": "DistributionIntervalUpdated",
      "type": "event"
    },
    {
      "anonymous": false,
      "inputs": [
        {
          "indexed": false,
          "internalType": "address",
          "name": "newEndowee",
          "type": "address"
        }
      ],
      "name": "EndoweeChanged",
      "type": "event"
    },
    {
      "anonymous": false,
      "inputs": [
        {
          "indexed": false,
          "internalType": "address",
          "name": "token",
          "type": "address"
        },
        {
          "indexed": false,
          "internalType": "uint256",
          "name": "newExpectedReturn",
          "type": "uint256"
        }
      ],
      "name": "ExpectedReturnUpdated",
      "type": "event"
    },
    {
      "anonymous": false,
      "inputs": [
        {
          "indexed": true,
          "internalType": "address",
          "name": "previousOwner",
          "type": "address"
        },
        {
          "indexed": true,
          "internalType": "address",
          "name": "newOwner",
          "type": "address"
        }
      ],
      "name": "OwnershipTransferred",
      "type": "event"
    },
    {
      "anonymous": false,
      "inputs": [
        {
          "indexed": false,
          "internalType": "address",
          "name": "token",
          "type": "address"
        }
      ],
      "name": "TokenAdded",
      "type": "event"
    },
    {
      "anonymous": false,
      "inputs": [
        {
          "indexed": false,
          "internalType": "address",
          "name": "token",
          "type": "address"
        }
      ],
      "name": "TokenRemoved",
      "type": "event"
    },
    {
      "inputs": [
        {
          "internalType": "address",
          "name": "",
          "type": "address"
        }
      ],
      "name": "accountants",
      "outputs": [
        {
          "internalType": "bool",
          "name": "",
          "type": "bool"
        }
      ],
      "stateMutability": "view",
      "type": "function"
    },
    {
      "inputs": [
        {
          "internalType": "uint256",
          "name": "",
          "type": "uint256"
        }
      ],
      "name": "accountantsList",
      "outputs": [
        {
          "internalType": "address",
          "name": "",
          "type": "address"
        }
      ],
      "stateMutability": "view",
      "type": "function"
    },
    {
      "inputs": [
        {
          "internalType": "address",
          "name": "accountant",
          "type": "address"
        }
      ],
      "name": "addAccountant",
      "outputs": [],
      "stateMutability": "nonpayable",
      "type": "function"
    },
    {
      "inputs": [
        {
          "internalType": "address",
          "name": "token",
          "type": "address"
        },
        {
          "internalType": "uint256",
          "name": "expectedReturn",
          "type": "uint256"
        }
      ],
      "name": "addToken",
      "outputs": [],
      "stateMutability": "nonpayable",
      "type": "function"
    },
    {
      "inputs": [
        {
          "internalType": "address",
          "name": "newEndowee",
          "type": "address"
        }
      ],
      "name": "changeEndowee",
      "outputs": [],
      "stateMutability": "nonpayable",
      "type": "function"
    },
    {
      "inputs": [],
      "name": "distributionInterval",
      "outputs": [
        {
          "internalType": "uint256",
          "name": "",
          "type": "uint256"
        }
      ],
      "stateMutability": "view",
      "type": "function"
    },
    {
      "inputs": [],
      "name": "endowee",
      "outputs": [
        {
          "internalType": "address",
          "name": "",
          "type": "address"
        }
      ],
      "stateMutability": "view",
      "type": "function"
    },
    {
      "inputs": [],
      "name": "getDistributableAmounts",
      "outputs": [
        {
          "internalType": "address[]",
          "name": "",
          "type": "address[]"
        },
        {
          "internalType": "uint256[]",
          "name": "",
          "type": "uint256[]"
        }
      ],
      "stateMutability": "view",
      "type": "function"
    },
    {
      "inputs": [],
      "name": "getDistributableTokenCount",
      "outputs": [
        {
          "internalType": "uint256",
          "name": "",
          "type": "uint256"
        }
      ],
      "stateMutability": "view",
      "type": "function"
    },
    {
      "inputs": [],
      "name": "owner",
      "outputs": [
        {
          "internalType": "address",
          "name": "",
          "type": "address"
        }
      ],
      "stateMutability": "view",
      "type": "function"
    },
    {
      "inputs": [
        {
          "internalType": "address",
          "name": "accountant",
          "type": "address"
        }
      ],
      "name": "removeAccountant",
      "outputs": [],
      "stateMutability": "nonpayable",
      "type": "function"
    },
    {
      "inputs": [
        {
          "internalType": "address",
          "name": "token",
          "type": "address"
        }
      ],
      "name": "removeToken",
      "outputs": [],
      "stateMutability": "nonpayable",
      "type": "function"
    },
    {
      "inputs": [],
      "name": "renounceOwnership",
      "outputs": [],
      "stateMutability": "nonpayable",
      "type": "function"
    },
    {
      "inputs": [
        {
          "internalType": "uint256",
          "name": "",
          "type": "uint256"
        }
      ],
      "name": "tokenList",
      "outputs": [
        {
          "internalType": "address",
          "name": "",
          "type": "address"
        }
      ],
      "stateMutability": "view",
      "type": "function"
    },
    {
      "inputs": [
        {
          "internalType": "address",
          "name": "",
          "type": "address"
        }
      ],
      "name": "tokens",
      "outputs": [
        {
          "internalType": "uint256",
          "name": "expectedAnnualReturn",
          "type": "uint256"
        },
        {
          "internalType": "uint256",
          "name": "lastDistributionTime",
          "type": "uint256"
        },
        {
          "internalType": "uint256",
          "name": "accumulatedBalance",
          "type": "uint256"
        }
      ],
      "stateMutability": "view",
      "type": "function"
    },
    {
      "inputs": [
        {
          "internalType": "address",
          "name": "newOwner",
          "type": "address"
        }
      ],
      "name": "transferOwnership",
      "outputs": [],
      "stateMutability": "nonpayable",
      "type": "function"
    },
    {
      "inputs": [],
      "name": "triggerDistribution",
      "outputs": [],
      "stateMutability": "nonpayable",
      "type": "function"
    },
    {
      "inputs": [
        {
          "internalType": "uint256",
          "name": "newInterval",
          "type": "uint256"
        }
      ],
      "name": "updateDistributionInterval",
      "outputs": [],
      "stateMutability": "nonpayable",
      "type": "function"
    },
    {
      "inputs": [
        {
          "internalType": "address",
          "name": "token",
          "type": "address"
        },
        {
          "internalType": "uint256",
          "name": "newExpectedReturn",
          "type": "uint256"
        }
      ],
      "name": "updateExpectedReturn",
      "outputs": [],
      "stateMutability": "nonpayable",
      "type": "function"
    }
  ],
  "bytecode": "0x60806040523480156200001157600080fd5b5060405162002c0838038062002c0883398181016040528101906200003791906200034c565b82600073ffffffffffffffffffffffffffffffffffffffff168173ffffffffffffffffffffffffffffffffffffffff1603620000ad5760006040517f1e4fbdf7000000000000000000000000000000000000000000000000000000008152600401620000a49190620003b9565b60405180910390fd5b620000be81620001e360201b60201c565b50600073ffffffffffffffffffffffffffffffffffffffff168273ffffffffffffffffffffffffffffffffffffffff160362000131576040517f08c379a000000000000000000000000000000000000000000000000000000000815260040162000128906200045d565b60405180910390fd5b6000811162000177576040517f08c379a00000000000000000000000000000000000000000000000000000000081526004016200016e90620004f5565b60405180910390fd5b81600160006101000a81548173ffffffffffffffffffffffffffffffffffffffff021916908373ffffffffffffffffffffffffffffffffffffffff160217905550806002819055506001600360006101000a81548160ff02191690831515021790555050505062000517565b60008060009054906101000a900473ffffffffffffffffffffffffffffffffffffffff169050816000806101000a81548173ffffffffffffffffffffffffffffffffffffffff021916908373ffffffffffffffffffffffffffffffffffffffff1602179055508173ffffffffffffffffffffffffffffffffffffffff168173ffffffffffffffffffffffffffffffffffffffff167f8be0079c531659141344cd1fd0a4f28419497f9722a3daafe3b4186f6b6457e060405160405180910390a35050565b600080fd5b600073ffffffffffffffffffffffffffffffffffffffff82169050919050565b6000620002d982620002ac565b9050919050565b620002eb81620002cc565b8114620002f757600080fd5b50565b6000815190506200030b81620002e0565b92915050565b6000819050919050565b620003268162000311565b81146200033257600080fd5b50565b60008151905062000346816200031b565b92915050565b600080600060608486031215620003685762000367620002a7565b5b60006200037886828701620002fa565b93505060206200038b86828701620002fa565b92505060406200039e8682870162000335565b9150509250925092565b620003b381620002cc565b82525050565b6000602082019050620003d06000830184620003a8565b92915050565b600082825260208201905092915050565b7f456e646f7765652063616e6e6f7420626520746865207a65726f20616464726560008201527f7373000000000000000000000000000000000000000000000000000000000000602082015250565b600062000445602283620003d6565b91506200045282620003e7565b604082019050919050565b60006020820190508181036000830152620004788162000436565b9050919050565b7f496e74657276616c206d7573742062652067726561746572207468616e207a6560008201527f726f000000000000000000000000000000000000000000000000000000000000602082015250565b6000620004dd602283620003d6565b9150620004ea826200047f565b604082019050919050565b600060208201905081810360008301526200051081620004ce565b9050919050565b6126e180620005276000396000f3fe608060405234801561001057600080fd5b50600436106101215760003560e01c8063715018a6116100ad578063af81c5b911610071578063af81c5b9146102ba578063e4860339146102d6578063f2fde38b14610308578063f707fb4a14610324578063fdc3f2001461035457610121565b8063715018a61461022a578063863c9ef4146102345780638da5cb5b146102505780639ead72221461026e578063af41d7a91461029e57610121565b80633c8f2217116100f45780633c8f2217146101985780634d46f22a146101b45780635fa7b584146101d257806371201a0e146101ee578063712c02971461020c57610121565b8063187c1bb4146101265780632b22901b1461014257806335cd4b46146101725780633868fd321461017c575b600080fd5b610140600480360381019061013b9190611ba0565b610373565b005b61015c60048036038101906101579190611c03565b610439565b6040516101699190611c3f565b60405180910390f35b61017a610478565b005b61019660048036038101906101919190611c03565b6107cc565b005b6101b260048036038101906101ad9190611ba0565b610927565b005b6101bc610b11565b6040516101c99190611c69565b60405180910390f35b6101ec60048036038101906101e79190611ba0565b610b9b565b005b6101f6610f12565b6040516102039190611c69565b60405180910390f35b610214610f18565b6040516102219190611c3f565b60405180910390f35b610232610f3e565b005b61024e60048036038101906102499190611c84565b610f52565b005b6102586110f0565b6040516102659190611c3f565b60405180910390f35b61028860048036038101906102839190611c03565b611119565b6040516102959190611c3f565b60405180910390f35b6102b860048036038101906102b39190611ba0565b611158565b005b6102d460048036038101906102cf9190611c84565b61124a565b005b6102f060048036038101906102eb9190611ba0565b611572565b6040516102ff93929190611cc4565b60405180910390f35b610322600480360381019061031d9190611ba0565b61159c565b005b61033e60048036038101906103399190611ba0565b611622565b60405161034b9190611d16565b60405180910390f35b61035c611642565b60405161036a929190611ead565b60405180910390f35b61037b611815565b6001600460008373ffffffffffffffffffffffffffffffffffffffff1673ffffffffffffffffffffffffffffffffffffffff16815260200190815260200160002060006101000a81548160ff0219169083151502179055506005819080600181540180825580915050600190039060005260206000200160009091909190916101000a81548173ffffffffffffffffffffffffffffffffffffffff021916908373ffffffffffffffffffffffffffffffffffffffff16021790555050565b6005818154811061044957600080fd5b906000526020600020016000915054906101000a900473ffffffffffffffffffffffffffffffffffffffff1681565b600360009054906101000a900460ff166104c7576040517f08c379a00000000000000000000000000000000000000000000000000000000081526004016104be90611f41565b60405180910390fd5b6000600360006101000a81548160ff02191690831515021790555060005b6007805490508110156107ae5760006007828154811061050857610507611f61565b5b9060005260206000200160009054906101000a900473ffffffffffffffffffffffffffffffffffffffff16905060006105408261189c565b90506000818373ffffffffffffffffffffffffffffffffffffffff166370a08231306040518263ffffffff1660e01b815260040161057e9190611c3f565b602060405180830381865afa15801561059b573d6000803e3d6000fd5b505050506040513d601f19601f820116820180604052508101906105bf9190611fa5565b101590506000821180156105d05750805b15610750578273ffffffffffffffffffffffffffffffffffffffff1663a9059cbb600160009054906101000a900473ffffffffffffffffffffffffffffffffffffffff16846040518363ffffffff1660e01b8152600401610632929190611fd2565b6020604051808303816000875af1158015610651573d6000803e3d6000fd5b505050506040513d601f19601f820116820180604052508101906106759190612027565b5081600660008573ffffffffffffffffffffffffffffffffffffffff1673ffffffffffffffffffffffffffffffffffffffff16815260200190815260200160002060020160008282546106c89190612083565b9250508190555042600660008573ffffffffffffffffffffffffffffffffffffffff1673ffffffffffffffffffffffffffffffffffffffff168152602001908152602001600020600101819055507fb649c98f58055c520df0dcb5709eff2e931217ff2fb1e21376130d31bbb1c0af8383604051610747929190611fd2565b60405180910390a15b60008211801561075e575080155b1561079e577fb649c98f58055c520df0dcb5709eff2e931217ff2fb1e21376130d31bbb1c0af8360006040516107959291906120fc565b60405180910390a15b50505080806001019150506104e5565b506001600360006101000a81548160ff021916908315150217905550565b6107d4611a71565b73ffffffffffffffffffffffffffffffffffffffff166107f26110f0565b73ffffffffffffffffffffffffffffffffffffffff16148061086457506004600061081b611a71565b73ffffffffffffffffffffffffffffffffffffffff1673ffffffffffffffffffffffffffffffffffffffff16815260200190815260200160002060009054906101000a900460ff165b6108a3576040517f08c379a000000000000000000000000000000000000000000000000000000000815260040161089a90612171565b60405180910390fd5b600081116108e6576040517f08c379a00000000000000000000000000000000000000000000000000000000081526004016108dd90612203565b60405180910390fd5b806002819055507f696dabb82e6086f8ebde53aa0b343c575398976d5ebb1b06ddb45c849bd005e68160405161091c9190611c69565b60405180910390a150565b61092f611815565b6000600460008373ffffffffffffffffffffffffffffffffffffffff1673ffffffffffffffffffffffffffffffffffffffff16815260200190815260200160002060006101000a81548160ff02191690831515021790555060005b600580549050811015610b0d578173ffffffffffffffffffffffffffffffffffffffff16600582815481106109c2576109c1611f61565b5b9060005260206000200160009054906101000a900473ffffffffffffffffffffffffffffffffffffffff1673ffffffffffffffffffffffffffffffffffffffff1603610b005760056001600580549050610a1c9190612083565b81548110610a2d57610a2c611f61565b5b9060005260206000200160009054906101000a900473ffffffffffffffffffffffffffffffffffffffff1660058281548110610a6c57610a6b611f61565b5b9060005260206000200160006101000a81548173ffffffffffffffffffffffffffffffffffffffff021916908373ffffffffffffffffffffffffffffffffffffffff1602179055506005805480610ac657610ac5612223565b5b6001900381819060005260206000200160006101000a81549073ffffffffffffffffffffffffffffffffffffffff02191690559055610b0d565b808060010191505061098a565b5050565b6000806000905060005b600780549050811015610b93576000610b7160078381548110610b4157610b40611f61565b5b9060005260206000200160009054906101000a900473ffffffffffffffffffffffffffffffffffffffff1661189c565b1115610b86578180610b8290612252565b9250505b8080600101915050610b1b565b508091505090565b610ba3611a71565b73ffffffffffffffffffffffffffffffffffffffff16610bc16110f0565b73ffffffffffffffffffffffffffffffffffffffff161480610c33575060046000610bea611a71565b73ffffffffffffffffffffffffffffffffffffffff1673ffffffffffffffffffffffffffffffffffffffff16815260200190815260200160002060009054906101000a900460ff165b610c72576040517f08c379a0000000000000000000000000000000000000000000000000000000008152600401610c6990612171565b60405180910390fd5b6000600660008373ffffffffffffffffffffffffffffffffffffffff1673ffffffffffffffffffffffffffffffffffffffff1681526020019081526020016000206000015411610cf7576040517f08c379a0000000000000000000000000000000000000000000000000000000008152600401610cee906122e6565b60405180910390fd5b600660008273ffffffffffffffffffffffffffffffffffffffff1673ffffffffffffffffffffffffffffffffffffffff16815260200190815260200160002060008082016000905560018201600090556002820160009055505060005b600780549050811015610ed7578173ffffffffffffffffffffffffffffffffffffffff1660078281548110610d8c57610d8b611f61565b5b9060005260206000200160009054906101000a900473ffffffffffffffffffffffffffffffffffffffff1673ffffffffffffffffffffffffffffffffffffffff1603610eca5760076001600780549050610de69190612083565b81548110610df757610df6611f61565b5b9060005260206000200160009054906101000a900473ffffffffffffffffffffffffffffffffffffffff1660078281548110610e3657610e35611f61565b5b9060005260206000200160006101000a81548173ffffffffffffffffffffffffffffffffffffffff021916908373ffffffffffffffffffffffffffffffffffffffff1602179055506007805480610e9057610e8f612223565b5b6001900381819060005260206000200160006101000a81549073ffffffffffffffffffffffffffffffffffffffff02191690559055610ed7565b8080600101915050610d54565b507f4c910b69fe65a61f7531b9c5042b2329ca7179c77290aa7e2eb3afa3c8511fd381604051610f079190611c3f565b60405180910390a150565b60025481565b600160009054906101000a900473ffffffffffffffffffffffffffffffffffffffff1681565b610f46611815565b610f506000611a79565b565b610f5a611a71565b73ffffffffffffffffffffffffffffffffffffffff16610f786110f0565b73ffffffffffffffffffffffffffffffffffffffff161480610fea575060046000610fa1611a71565b73ffffffffffffffffffffffffffffffffffffffff1673ffffffffffffffffffffffffffffffffffffffff16815260200190815260200160002060009054906101000a900460ff165b611029576040517f08c379a000000000000000000000000000000000000000000000000000000000815260040161102090612171565b60405180910390fd5b6000811161106c576040517f08c379a000000000000000000000000000000000000000000000000000000000815260040161106390612378565b60405180910390fd5b80600660008473ffffffffffffffffffffffffffffffffffffffff1673ffffffffffffffffffffffffffffffffffffffff168152602001908152602001600020600001819055507fa5f71f55168ac8162684bd2330d38322ccd6ca383d1769a00fc27d34e2ea766982826040516110e4929190611fd2565b60405180910390a15050565b60008060009054906101000a900473ffffffffffffffffffffffffffffffffffffffff16905090565b6007818154811061112957600080fd5b906000526020600020016000915054906101000a900473ffffffffffffffffffffffffffffffffffffffff1681565b611160611815565b600073ffffffffffffffffffffffffffffffffffffffff168173ffffffffffffffffffffffffffffffffffffffff16036111cf576040517f08c379a00000000000000000000000000000000000000000000000000000000081526004016111c69061240a565b60405180910390fd5b80600160006101000a81548173ffffffffffffffffffffffffffffffffffffffff021916908373ffffffffffffffffffffffffffffffffffffffff1602179055507fd1ec9d51e81c27d7398ddf701bfe016f04dff1e442ff1f9a6aa4088ed499742a8160405161123f9190611c3f565b60405180910390a150565b611252611a71565b73ffffffffffffffffffffffffffffffffffffffff166112706110f0565b73ffffffffffffffffffffffffffffffffffffffff1614806112e2575060046000611299611a71565b73ffffffffffffffffffffffffffffffffffffffff1673ffffffffffffffffffffffffffffffffffffffff16815260200190815260200160002060009054906101000a900460ff165b611321576040517f08c379a000000000000000000000000000000000000000000000000000000000815260040161131890612171565b60405180910390fd5b600073ffffffffffffffffffffffffffffffffffffffff168273ffffffffffffffffffffffffffffffffffffffff1603611390576040517f08c379a000000000000000000000000000000000000000000000000000000000815260040161138790612476565b60405180910390fd5b600081116113d3576040517f08c379a00000000000000000000000000000000000000000000000000000000081526004016113ca90612378565b60405180910390fd5b6000600660008473ffffffffffffffffffffffffffffffffffffffff1673ffffffffffffffffffffffffffffffffffffffff1681526020019081526020016000206000015414611458576040517f08c379a000000000000000000000000000000000000000000000000000000000815260040161144f906124e2565b60405180910390fd5b60405180606001604052808281526020014281526020016000815250600660008473ffffffffffffffffffffffffffffffffffffffff1673ffffffffffffffffffffffffffffffffffffffff1681526020019081526020016000206000820151816000015560208201518160010155604082015181600201559050506007829080600181540180825580915050600190039060005260206000200160009091909190916101000a81548173ffffffffffffffffffffffffffffffffffffffff021916908373ffffffffffffffffffffffffffffffffffffffff1602179055507f784c8f4dbf0ffedd6e72c76501c545a70f8b203b30a26ce542bf92ba87c248a4826040516115669190611c3f565b60405180910390a15050565b60066020528060005260406000206000915090508060000154908060010154908060020154905083565b6115a4611815565b600073ffffffffffffffffffffffffffffffffffffffff168173ffffffffffffffffffffffffffffffffffffffff16036116165760006040517f1e4fbdf700000000000000000000000000000000000000000000000000000000815260040161160d9190611c3f565b60405180910390fd5b61161f81611a79565b50565b60046020528060005260406000206000915054906101000a900460ff1681565b606080600060078054905067ffffffffffffffff81111561166657611665612502565b5b6040519080825280602002602001820160405280156116945781602001602082028036833780820191505090505b509050600060078054905067ffffffffffffffff8111156116b8576116b7612502565b5b6040519080825280602002602001820160405280156116e65781602001602082028036833780820191505090505b50905060005b6007805490508110156118085760006117426007838154811061171257611711611f61565b5b9060005260206000200160009054906101000a900473ffffffffffffffffffffffffffffffffffffffff1661189c565b905060008111156117fa576007828154811061176157611760611f61565b5b9060005260206000200160009054906101000a900473ffffffffffffffffffffffffffffffffffffffff1684838151811061179f5761179e611f61565b5b602002602001019073ffffffffffffffffffffffffffffffffffffffff16908173ffffffffffffffffffffffffffffffffffffffff1681525050808383815181106117ed576117ec611f61565b5b6020026020010181815250505b5080806001019150506116ec565b5081819350935050509091565b61181d611a71565b73ffffffffffffffffffffffffffffffffffffffff1661183b6110f0565b73ffffffffffffffffffffffffffffffffffffffff161461189a5761185e611a71565b6040517f118cdaa70000000000000000000000000000000000000000000000000000000081526004016118919190611c3f565b60405180910390fd5b565b600080600660008473ffffffffffffffffffffffffffffffffffffffff1673ffffffffffffffffffffffffffffffffffffffff1681526020019081526020016000206000015411611922576040517f08c379a00000000000000000000000000000000000000000000000000000000081526004016119199061257d565b60405180910390fd5b6000600660008473ffffffffffffffffffffffffffffffffffffffff1673ffffffffffffffffffffffffffffffffffffffff16815260200190815260200160002060010154116119a7576040517f08c379a000000000000000000000000000000000000000000000000000000000815260040161199e906125e9565b60405180910390fd5b6000600660008473ffffffffffffffffffffffffffffffffffffffff1673ffffffffffffffffffffffffffffffffffffffff168152602001908152602001600020604051806060016040529081600082015481526020016001820154815260200160028201548152505090506000816020015142611a259190612083565b9050600061271083600001518460400151611a409190612609565b611a4a919061267a565b90506301e133808282611a5d9190612609565b611a67919061267a565b9350505050919050565b600033905090565b60008060009054906101000a900473ffffffffffffffffffffffffffffffffffffffff169050816000806101000a81548173ffffffffffffffffffffffffffffffffffffffff021916908373ffffffffffffffffffffffffffffffffffffffff1602179055508173ffffffffffffffffffffffffffffffffffffffff168173ffffffffffffffffffffffffffffffffffffffff167f8be0079c531659141344cd1fd0a4f28419497f9722a3daafe3b4186f6b6457e060405160405180910390a35050565b600080fd5b600073ffffffffffffffffffffffffffffffffffffffff82169050919050565b6000611b6d82611b42565b9050919050565b611b7d81611b62565b8114611b8857600080fd5b50565b600081359050611b9a81611b74565b92915050565b600060208284031215611bb657611bb5611b3d565b5b6000611bc484828501611b8b565b91505092915050565b6000819050919050565b611be081611bcd565b8114611beb57600080fd5b50565b600081359050611bfd81611bd7565b92915050565b600060208284031215611c1957611c18611b3d565b5b6000611c2784828501611bee565b91505092915050565b611c3981611b62565b82525050565b6000602082019050611c546000830184611c30565b92915050565b611c6381611bcd565b82525050565b6000602082019050611c7e6000830184611c5a565b92915050565b60008060408385031215611c9b57611c9a611b3d565b5b6000611ca985828601611b8b565b9250506020611cba85828601611bee565b9150509250929050565b6000606082019050611cd96000830186611c5a565b611ce66020830185611c5a565b611cf36040830184611c5a565b949350505050565b60008115159050919050565b611d1081611cfb565b82525050565b6000602082019050611d2b6000830184611d07565b92915050565b600081519050919050565b600082825260208201905092915050565b6000819050602082019050919050565b611d6681611b62565b82525050565b6000611d788383611d5d565b60208301905092915050565b6000602082019050919050565b6000611d9c82611d31565b611da68185611d3c565b9350611db183611d4d565b8060005b83811015611de2578151611dc98882611d6c565b9750611dd483611d84565b925050600181019050611db5565b5085935050505092915050565b600081519050919050565b600082825260208201905092915050565b6000819050602082019050919050565b611e2481611bcd565b82525050565b6000611e368383611e1b565b60208301905092915050565b6000602082019050919050565b6000611e5a82611def565b611e648185611dfa565b9350611e6f83611e0b565b8060005b83811015611ea0578151611e878882611e2a565b9750611e9283611e42565b925050600181019050611e73565b5085935050505092915050565b60006040820190508181036000830152611ec78185611d91565b90508181036020830152611edb8184611e4f565b90509392505050565b600082825260208201905092915050565b7f5265656e7472616e742063616c6c000000000000000000000000000000000000600082015250565b6000611f2b600e83611ee4565b9150611f3682611ef5565b602082019050919050565b60006020820190508181036000830152611f5a81611f1e565b9050919050565b7f4e487b7100000000000000000000000000000000000000000000000000000000600052603260045260246000fd5b600081519050611f9f81611bd7565b92915050565b600060208284031215611fbb57611fba611b3d565b5b6000611fc984828501611f90565b91505092915050565b6000604082019050611fe76000830185611c30565b611ff46020830184611c5a565b9392505050565b61200481611cfb565b811461200f57600080fd5b50565b60008151905061202181611ffb565b92915050565b60006020828403121561203d5761203c611b3d565b5b600061204b84828501612012565b91505092915050565b7f4e487b7100000000000000000000000000000000000000000000000000000000600052601160045260246000fd5b600061208e82611bcd565b915061209983611bcd565b92508282039050818111156120b1576120b0612054565b5b92915050565b6000819050919050565b6000819050919050565b60006120e66120e16120dc846120b7565b6120c1565b611bcd565b9050919050565b6120f6816120cb565b82525050565b60006040820190506121116000830185611c30565b61211e60208301846120ed565b9392505050565b7f4e6f7420617574686f72697a6564000000000000000000000000000000000000600082015250565b600061215b600e83611ee4565b915061216682612125565b602082019050919050565b6000602082019050818103600083015261218a8161214e565b9050919050565b7f496e74657276616c206d7573742062652067726561746572207468616e207a6560008201527f726f000000000000000000000000000000000000000000000000000000000000602082015250565b60006121ed602283611ee4565b91506121f882612191565b604082019050919050565b6000602082019050818103600083015261221c816121e0565b9050919050565b7f4e487b7100000000000000000000000000000000000000000000000000000000600052603160045260246000fd5b600061225d82611bcd565b91507fffffffffffffffffffffffffffffffffffffffffffffffffffffffffffffffff820361228f5761228e612054565b5b600182019050919050565b7f546f6b656e206e6f74206d616e61676564000000000000000000000000000000600082015250565b60006122d0601183611ee4565b91506122db8261229a565b602082019050919050565b600060208201905081810360008301526122ff816122c3565b9050919050565b7f45787065637465642072657475726e206d75737420626520677265617465722060008201527f7468616e207a65726f0000000000000000000000000000000000000000000000602082015250565b6000612362602983611ee4565b915061236d82612306565b604082019050919050565b6000602082019050818103600083015261239181612355565b9050919050565b7f456e646f7765652063616e6e6f7420626520746865207a65726f20616464726560008201527f7373000000000000000000000000000000000000000000000000000000000000602082015250565b60006123f4602283611ee4565b91506123ff82612398565b604082019050919050565b60006020820190508181036000830152612423816123e7565b9050919050565b7f546f6b656e20616464726573732063616e6e6f74206265207a65726f00000000600082015250565b6000612460601c83611ee4565b915061246b8261242a565b602082019050919050565b6000602082019050818103600083015261248f81612453565b9050919050565b7f546f6b656e20616c7265616479206d616e616765640000000000000000000000600082015250565b60006124cc601583611ee4565b91506124d782612496565b602082019050919050565b600060208201905081810360008301526124fb816124bf565b9050919050565b7f4e487b7100000000000000000000000000000000000000000000000000000000600052604160045260246000fd5b7f45787065637465642072657475726e206e6f7420736574000000000000000000600082015250565b6000612567601783611ee4565b915061257282612531565b602082019050919050565b600060208201905081810360008301526125968161255a565b9050919050565b7f4c61737420646973747269627574696f6e2074696d65206e6f74207365740000600082015250565b60006125d3601e83611ee4565b91506125de8261259d565b602082019050919050565b60006020820190508181036000830152612602816125c6565b9050919050565b600061261482611bcd565b915061261f83611bcd565b925082820261262d81611bcd565b9150828204841483151761264457612643612054565b5b5092915050565b7f4e487b7100000000000000000000000000000000000000000000000000000000600052601260045260246000fd5b600061268582611bcd565b915061269083611bcd565b9250826126a05761269f61264b565b5b82820490509291505056fea264697066735822122029f5560413bf15625b00c35b69cea5bd2184a10eb487a7294d3a36ab79b5535164736f6c63430008180033",
  "linkReferences": {},
  "deployedLinkReferences": {}
}