{
  "_format": "hh-sol-artifact-1",
  "contractName": "Endoweth",
  "sourceName": "contracts/Endoweth.sol",
  "abi": [
    {
      "inputs": [
        {
          "internalType": "address",
          "name": "_owner",
          "type": "address"
        },
        {
          "internalType": "address",
          "name": "_endowee",
          "type": "address"
        },
        {
          "internalType": "uint256",
          "name": "_distributionInterval",
          "type": "uint256"
        }
      ],
      "stateMutability": "nonpayable",
      "type": "constructor"
    },
    {
      "inputs": [
        {
          "internalType": "address",
          "name": "owner",
          "type": "address"
        }
      ],
      "name": "OwnableInvalidOwner",
      "type": "error"
    },
    {
      "inputs": [
        {
          "internalType": "address",
          "name": "account",
          "type": "address"
        }
      ],
      "name": "OwnableUnauthorizedAccount",
      "type": "error"
    },
    {
      "inputs": [],
      "name": "ReentrancyGuardReentrantCall",
      "type": "error"
    },
    {
      "anonymous": false,
      "inputs": [
        {
          "indexed": true,
          "internalType": "address",
          "name": "accountant",
          "type": "address"
        }
      ],
      "name": "AccountantAdded",
      "type": "event"
    },
    {
      "anonymous": false,
      "inputs": [
        {
          "indexed": true,
          "internalType": "address",
          "name": "accountant",
          "type": "address"
        }
      ],
      "name": "AccountantRemoved",
      "type": "event"
    },
    {
      "anonymous": false,
      "inputs": [
        {
          "indexed": false,
          "internalType": "address",
          "name": "token",
          "type": "address"
        },
        {
          "indexed": false,
          "internalType": "uint256",
          "name": "amount",
          "type": "uint256"
        }
      ],
      "name": "Distributed",
      "type": "event"
    },
    {
      "anonymous": false,
      "inputs": [
        {
          "indexed": false,
          "internalType": "uint256",
          "name": "newInterval",
          "type": "uint256"
        }
      ],
      "name": "DistributionIntervalUpdated",
      "type": "event"
    },
    {
      "anonymous": false,
      "inputs": [
        {
          "indexed": false,
          "internalType": "address",
          "name": "newEndowee",
          "type": "address"
        }
      ],
      "name": "EndoweeChanged",
      "type": "event"
    },
    {
      "anonymous": false,
      "inputs": [
        {
          "indexed": false,
          "internalType": "address",
          "name": "token",
          "type": "address"
        },
        {
          "indexed": false,
          "internalType": "uint256",
          "name": "newExpectedReturn",
          "type": "uint256"
        }
      ],
      "name": "ExpectedReturnUpdated",
      "type": "event"
    },
    {
      "anonymous": false,
      "inputs": [
        {
          "indexed": true,
          "internalType": "address",
          "name": "previousOwner",
          "type": "address"
        },
        {
          "indexed": true,
          "internalType": "address",
          "name": "newOwner",
          "type": "address"
        }
      ],
      "name": "OwnershipTransferred",
      "type": "event"
    },
    {
      "anonymous": false,
      "inputs": [
        {
          "indexed": false,
          "internalType": "address",
          "name": "token",
          "type": "address"
        }
      ],
      "name": "TokenAdded",
      "type": "event"
    },
    {
      "anonymous": false,
      "inputs": [
        {
          "indexed": false,
          "internalType": "address",
          "name": "token",
          "type": "address"
        }
      ],
      "name": "TokenRemoved",
      "type": "event"
    },
    {
      "inputs": [
        {
          "internalType": "address",
          "name": "",
          "type": "address"
        }
      ],
      "name": "accountants",
      "outputs": [
        {
          "internalType": "bool",
          "name": "",
          "type": "bool"
        }
      ],
      "stateMutability": "view",
      "type": "function"
    },
    {
      "inputs": [
        {
          "internalType": "uint256",
          "name": "",
          "type": "uint256"
        }
      ],
      "name": "accountantsList",
      "outputs": [
        {
          "internalType": "address",
          "name": "",
          "type": "address"
        }
      ],
      "stateMutability": "view",
      "type": "function"
    },
    {
      "inputs": [
        {
          "internalType": "address",
          "name": "accountant",
          "type": "address"
        }
      ],
      "name": "addAccountant",
      "outputs": [],
      "stateMutability": "nonpayable",
      "type": "function"
    },
    {
      "inputs": [
        {
          "internalType": "address",
          "name": "token",
          "type": "address"
        },
        {
          "internalType": "uint256",
          "name": "expectedReturn",
          "type": "uint256"
        }
      ],
      "name": "addToken",
      "outputs": [],
      "stateMutability": "nonpayable",
      "type": "function"
    },
    {
      "inputs": [
        {
          "internalType": "address",
          "name": "newEndowee",
          "type": "address"
        }
      ],
      "name": "changeEndowee",
      "outputs": [],
      "stateMutability": "nonpayable",
      "type": "function"
    },
    {
      "inputs": [],
      "name": "distributionInterval",
      "outputs": [
        {
          "internalType": "uint256",
          "name": "",
          "type": "uint256"
        }
      ],
      "stateMutability": "view",
      "type": "function"
    },
    {
      "inputs": [],
      "name": "endowee",
      "outputs": [
        {
          "internalType": "address",
          "name": "",
          "type": "address"
        }
      ],
      "stateMutability": "view",
      "type": "function"
    },
    {
      "inputs": [],
      "name": "getDistributableAmounts",
      "outputs": [
        {
          "internalType": "address[]",
          "name": "",
          "type": "address[]"
        },
        {
          "internalType": "uint256[]",
          "name": "",
          "type": "uint256[]"
        }
      ],
      "stateMutability": "view",
      "type": "function"
    },
    {
      "inputs": [],
      "name": "getDistributableTokenCount",
      "outputs": [
        {
          "internalType": "uint256",
          "name": "",
          "type": "uint256"
        }
      ],
      "stateMutability": "view",
      "type": "function"
    },
    {
      "inputs": [],
      "name": "owner",
      "outputs": [
        {
          "internalType": "address",
          "name": "",
          "type": "address"
        }
      ],
      "stateMutability": "view",
      "type": "function"
    },
    {
      "inputs": [
        {
          "internalType": "address",
          "name": "accountant",
          "type": "address"
        }
      ],
      "name": "removeAccountant",
      "outputs": [],
      "stateMutability": "nonpayable",
      "type": "function"
    },
    {
      "inputs": [
        {
          "internalType": "address",
          "name": "token",
          "type": "address"
        }
      ],
      "name": "removeToken",
      "outputs": [],
      "stateMutability": "nonpayable",
      "type": "function"
    },
    {
      "inputs": [],
      "name": "renounceOwnership",
      "outputs": [],
      "stateMutability": "nonpayable",
      "type": "function"
    },
    {
      "inputs": [
        {
          "internalType": "uint256",
          "name": "",
          "type": "uint256"
        }
      ],
      "name": "tokenList",
      "outputs": [
        {
          "internalType": "address",
          "name": "",
          "type": "address"
        }
      ],
      "stateMutability": "view",
      "type": "function"
    },
    {
      "inputs": [
        {
          "internalType": "address",
          "name": "",
          "type": "address"
        }
      ],
      "name": "tokens",
      "outputs": [
        {
          "internalType": "uint256",
          "name": "expectedAnnualReturn",
          "type": "uint256"
        },
        {
          "internalType": "uint256",
          "name": "lastDistributionTime",
          "type": "uint256"
        }
      ],
      "stateMutability": "view",
      "type": "function"
    },
    {
      "inputs": [
        {
          "internalType": "address",
          "name": "newOwner",
          "type": "address"
        }
      ],
      "name": "transferOwnership",
      "outputs": [],
      "stateMutability": "nonpayable",
      "type": "function"
    },
    {
      "inputs": [],
      "name": "triggerDistribution",
      "outputs": [],
      "stateMutability": "nonpayable",
      "type": "function"
    },
    {
      "inputs": [
        {
          "internalType": "address",
          "name": "token",
          "type": "address"
        }
      ],
      "name": "unwindToken",
      "outputs": [],
      "stateMutability": "nonpayable",
      "type": "function"
    },
    {
      "inputs": [
        {
          "internalType": "uint256",
          "name": "newInterval",
          "type": "uint256"
        }
      ],
      "name": "updateDistributionInterval",
      "outputs": [],
      "stateMutability": "nonpayable",
      "type": "function"
    },
    {
      "inputs": [
        {
          "internalType": "address",
          "name": "token",
          "type": "address"
        },
        {
          "internalType": "uint256",
          "name": "newExpectedReturn",
          "type": "uint256"
        }
      ],
      "name": "updateExpectedReturn",
      "outputs": [],
      "stateMutability": "nonpayable",
      "type": "function"
    }
  ],
  "bytecode": "0x60806040523480156200001157600080fd5b506040516200327638038062003276833981810160405281019062000037919062000338565b82600073ffffffffffffffffffffffffffffffffffffffff168173ffffffffffffffffffffffffffffffffffffffff1603620000ad5760006040517f1e4fbdf7000000000000000000000000000000000000000000000000000000008152600401620000a49190620003a5565b60405180910390fd5b620000be81620001cf60201b60201c565b5060018081905550600073ffffffffffffffffffffffffffffffffffffffff168273ffffffffffffffffffffffffffffffffffffffff160362000138576040517f08c379a00000000000000000000000000000000000000000000000000000000081526004016200012f9062000449565b60405180910390fd5b600081116200017e576040517f08c379a00000000000000000000000000000000000000000000000000000000081526004016200017590620004e1565b60405180910390fd5b81600260006101000a81548173ffffffffffffffffffffffffffffffffffffffff021916908373ffffffffffffffffffffffffffffffffffffffff1602179055508060038190555050505062000503565b60008060009054906101000a900473ffffffffffffffffffffffffffffffffffffffff169050816000806101000a81548173ffffffffffffffffffffffffffffffffffffffff021916908373ffffffffffffffffffffffffffffffffffffffff1602179055508173ffffffffffffffffffffffffffffffffffffffff168173ffffffffffffffffffffffffffffffffffffffff167f8be0079c531659141344cd1fd0a4f28419497f9722a3daafe3b4186f6b6457e060405160405180910390a35050565b600080fd5b600073ffffffffffffffffffffffffffffffffffffffff82169050919050565b6000620002c58262000298565b9050919050565b620002d781620002b8565b8114620002e357600080fd5b50565b600081519050620002f781620002cc565b92915050565b6000819050919050565b6200031281620002fd565b81146200031e57600080fd5b50565b600081519050620003328162000307565b92915050565b60008060006060848603121562000354576200035362000293565b5b60006200036486828701620002e6565b93505060206200037786828701620002e6565b92505060406200038a8682870162000321565b9150509250925092565b6200039f81620002b8565b82525050565b6000602082019050620003bc600083018462000394565b92915050565b600082825260208201905092915050565b7f456e646f7765652063616e6e6f7420626520746865207a65726f20616464726560008201527f7373000000000000000000000000000000000000000000000000000000000000602082015250565b600062000431602283620003c2565b91506200043e82620003d3565b604082019050919050565b60006020820190508181036000830152620004648162000422565b9050919050565b7f496e74657276616c206d7573742062652067726561746572207468616e207a6560008201527f726f000000000000000000000000000000000000000000000000000000000000602082015250565b6000620004c9602283620003c2565b9150620004d6826200046b565b604082019050919050565b60006020820190508181036000830152620004fc81620004ba565b9050919050565b612d6380620005136000396000f3fe608060405234801561001057600080fd5b506004361061012c5760003560e01c8063863c9ef4116100ad578063af81c5b911610071578063af81c5b9146102e1578063e4860339146102fd578063f2fde38b1461032e578063f707fb4a1461034a578063fdc3f2001461037a5761012c565b8063863c9ef41461023f5780638da5cb5b1461025b5780639a0bb11a146102795780639ead722214610295578063af41d7a9146102c55761012c565b80634d46f22a116100f45780634d46f22a146101bf5780635fa7b584146101dd57806371201a0e146101f9578063712c029714610217578063715018a6146102355761012c565b8063187c1bb4146101315780632b22901b1461014d57806335cd4b461461017d5780633868fd32146101875780633c8f2217146101a3575b600080fd5b61014b60048036038101906101469190612080565b610399565b005b610167600480360381019061016291906120e3565b61056c565b604051610174919061211f565b60405180910390f35b6101856105ab565b005b6101a1600480360381019061019c91906120e3565b61086f565b005b6101bd60048036038101906101b89190612080565b6109ca565b005b6101c7610c83565b6040516101d49190612149565b60405180910390f35b6101f760048036038101906101f29190612080565b610d0d565b005b61020161107c565b60405161020e9190612149565b60405180910390f35b61021f611082565b60405161022c919061211f565b60405180910390f35b61023d6110a8565b005b61025960048036038101906102549190612164565b6110bc565b005b61026361125a565b604051610270919061211f565b60405180910390f35b610293600480360381019061028e9190612080565b611283565b005b6102af60048036038101906102aa91906120e3565b61148f565b6040516102bc919061211f565b60405180910390f35b6102df60048036038101906102da9190612080565b6114ce565b005b6102fb60048036038101906102f69190612164565b6115c0565b005b61031760048036038101906103129190612080565b61195c565b6040516103259291906121a4565b60405180910390f35b61034860048036038101906103439190612080565b611980565b005b610364600480360381019061035f9190612080565b611a06565b60405161037191906121e8565b60405180910390f35b610382611a26565b60405161039092919061237f565b60405180910390f35b6103a1611bf9565b60005b60058054905081101561046a578173ffffffffffffffffffffffffffffffffffffffff16600582815481106103dc576103db6123b6565b5b9060005260206000200160009054906101000a900473ffffffffffffffffffffffffffffffffffffffff1673ffffffffffffffffffffffffffffffffffffffff160361045d576040517f08c379a000000000000000000000000000000000000000000000000000000000815260040161045490612442565b60405180910390fd5b80806001019150506103a4565b506001600460008373ffffffffffffffffffffffffffffffffffffffff1673ffffffffffffffffffffffffffffffffffffffff16815260200190815260200160002060006101000a81548160ff0219169083151502179055506005819080600181540180825580915050600190039060005260206000200160009091909190916101000a81548173ffffffffffffffffffffffffffffffffffffffff021916908373ffffffffffffffffffffffffffffffffffffffff1602179055508073ffffffffffffffffffffffffffffffffffffffff167ff65b2548df8c8fccc0b3e5aead8cecc246016299e168a27cb98203ae0f8a9c0860405160405180910390a250565b6005818154811061057c57600080fd5b906000526020600020016000915054906101000a900473ffffffffffffffffffffffffffffffffffffffff1681565b6105b3611c80565b60005b600780549050811015610864576000600782815481106105d9576105d86123b6565b5b9060005260206000200160009054906101000a900473ffffffffffffffffffffffffffffffffffffffff169050600061061182611cc6565b90506000818373ffffffffffffffffffffffffffffffffffffffff166370a08231306040518263ffffffff1660e01b815260040161064f919061211f565b602060405180830381865afa15801561066c573d6000803e3d6000fd5b505050506040513d601f19601f820116820180604052508101906106909190612477565b101590506000821180156106a15750805b15610806578273ffffffffffffffffffffffffffffffffffffffff1663a9059cbb600260009054906101000a900473ffffffffffffffffffffffffffffffffffffffff16846040518363ffffffff1660e01b81526004016107039291906124a4565b6020604051808303816000875af1158015610722573d6000803e3d6000fd5b505050506040513d601f19601f8201168201806040525081019061074691906124f9565b610785576040517f08c379a000000000000000000000000000000000000000000000000000000000815260040161077c90612572565b60405180910390fd5b42600660008573ffffffffffffffffffffffffffffffffffffffff1673ffffffffffffffffffffffffffffffffffffffff168152602001908152602001600020600101819055507fb649c98f58055c520df0dcb5709eff2e931217ff2fb1e21376130d31bbb1c0af83836040516107fd9291906124a4565b60405180910390a15b600082118015610814575080155b15610854577fb649c98f58055c520df0dcb5709eff2e931217ff2fb1e21376130d31bbb1c0af83600060405161084b9291906125d7565b60405180910390a15b50505080806001019150506105b6565b5061086d611f48565b565b610877611f51565b73ffffffffffffffffffffffffffffffffffffffff1661089561125a565b73ffffffffffffffffffffffffffffffffffffffff1614806109075750600460006108be611f51565b73ffffffffffffffffffffffffffffffffffffffff1673ffffffffffffffffffffffffffffffffffffffff16815260200190815260200160002060009054906101000a900460ff165b610946576040517f08c379a000000000000000000000000000000000000000000000000000000000815260040161093d9061264c565b60405180910390fd5b60008111610989576040517f08c379a0000000000000000000000000000000000000000000000000000000008152600401610980906126de565b60405180910390fd5b806003819055507f696dabb82e6086f8ebde53aa0b343c575398976d5ebb1b06ddb45c849bd005e6816040516109bf9190612149565b60405180910390a150565b6109d2611bf9565b600460008273ffffffffffffffffffffffffffffffffffffffff1673ffffffffffffffffffffffffffffffffffffffff16815260200190815260200160002060009054906101000a900460ff16610a5e576040517f08c379a0000000000000000000000000000000000000000000000000000000008152600401610a559061274a565b60405180910390fd5b6000600460008373ffffffffffffffffffffffffffffffffffffffff1673ffffffffffffffffffffffffffffffffffffffff16815260200190815260200160002060006101000a81548160ff02191690831515021790555060005b600580549050811015610c3c578173ffffffffffffffffffffffffffffffffffffffff1660058281548110610af157610af06123b6565b5b9060005260206000200160009054906101000a900473ffffffffffffffffffffffffffffffffffffffff1673ffffffffffffffffffffffffffffffffffffffff1603610c2f5760056001600580549050610b4b9190612799565b81548110610b5c57610b5b6123b6565b5b9060005260206000200160009054906101000a900473ffffffffffffffffffffffffffffffffffffffff1660058281548110610b9b57610b9a6123b6565b5b9060005260206000200160006101000a81548173ffffffffffffffffffffffffffffffffffffffff021916908373ffffffffffffffffffffffffffffffffffffffff1602179055506005805480610bf557610bf46127cd565b5b6001900381819060005260206000200160006101000a81549073ffffffffffffffffffffffffffffffffffffffff02191690559055610c3c565b8080600101915050610ab9565b508073ffffffffffffffffffffffffffffffffffffffff167f4009b46a097a1583cd2656204c3140a17e85899c512922a0993ed13d265fcebb60405160405180910390a250565b6000806000905060005b600780549050811015610d05576000610ce360078381548110610cb357610cb26123b6565b5b9060005260206000200160009054906101000a900473ffffffffffffffffffffffffffffffffffffffff16611cc6565b1115610cf8578180610cf4906127fc565b9250505b8080600101915050610c8d565b508091505090565b610d15611f51565b73ffffffffffffffffffffffffffffffffffffffff16610d3361125a565b73ffffffffffffffffffffffffffffffffffffffff161480610da5575060046000610d5c611f51565b73ffffffffffffffffffffffffffffffffffffffff1673ffffffffffffffffffffffffffffffffffffffff16815260200190815260200160002060009054906101000a900460ff165b610de4576040517f08c379a0000000000000000000000000000000000000000000000000000000008152600401610ddb9061264c565b60405180910390fd5b6000600660008373ffffffffffffffffffffffffffffffffffffffff1673ffffffffffffffffffffffffffffffffffffffff1681526020019081526020016000206000015411610e69576040517f08c379a0000000000000000000000000000000000000000000000000000000008152600401610e6090612890565b60405180910390fd5b600660008273ffffffffffffffffffffffffffffffffffffffff1673ffffffffffffffffffffffffffffffffffffffff1681526020019081526020016000206000808201600090556001820160009055505060005b600780549050811015611078578173ffffffffffffffffffffffffffffffffffffffff1660078281548110610ef657610ef56123b6565b5b9060005260206000200160009054906101000a900473ffffffffffffffffffffffffffffffffffffffff1673ffffffffffffffffffffffffffffffffffffffff160361106b5760076001600780549050610f509190612799565b81548110610f6157610f606123b6565b5b9060005260206000200160009054906101000a900473ffffffffffffffffffffffffffffffffffffffff1660078281548110610fa057610f9f6123b6565b5b9060005260206000200160006101000a81548173ffffffffffffffffffffffffffffffffffffffff021916908373ffffffffffffffffffffffffffffffffffffffff1602179055506007805480610ffa57610ff96127cd565b5b6001900381819060005260206000200160006101000a81549073ffffffffffffffffffffffffffffffffffffffff021916905590557f4c910b69fe65a61f7531b9c5042b2329ca7179c77290aa7e2eb3afa3c8511fd38260405161105e919061211f565b60405180910390a1611078565b8080600101915050610ebe565b5050565b60035481565b600260009054906101000a900473ffffffffffffffffffffffffffffffffffffffff1681565b6110b0611bf9565b6110ba6000611f59565b565b6110c4611f51565b73ffffffffffffffffffffffffffffffffffffffff166110e261125a565b73ffffffffffffffffffffffffffffffffffffffff16148061115457506004600061110b611f51565b73ffffffffffffffffffffffffffffffffffffffff1673ffffffffffffffffffffffffffffffffffffffff16815260200190815260200160002060009054906101000a900460ff165b611193576040517f08c379a000000000000000000000000000000000000000000000000000000000815260040161118a9061264c565b60405180910390fd5b600081116111d6576040517f08c379a00000000000000000000000000000000000000000000000000000000081526004016111cd90612922565b60405180910390fd5b80600660008473ffffffffffffffffffffffffffffffffffffffff1673ffffffffffffffffffffffffffffffffffffffff168152602001908152602001600020600001819055507fa5f71f55168ac8162684bd2330d38322ccd6ca383d1769a00fc27d34e2ea7669828260405161124e9291906124a4565b60405180910390a15050565b60008060009054906101000a900473ffffffffffffffffffffffffffffffffffffffff16905090565b61128b611bf9565b6000600660008373ffffffffffffffffffffffffffffffffffffffff1673ffffffffffffffffffffffffffffffffffffffff1681526020019081526020016000206000015414611310576040517f08c379a00000000000000000000000000000000000000000000000000000000081526004016113079061298e565b60405180910390fd5b60008173ffffffffffffffffffffffffffffffffffffffff166370a08231306040518263ffffffff1660e01b815260040161134b919061211f565b602060405180830381865afa158015611368573d6000803e3d6000fd5b505050506040513d601f19601f8201168201806040525081019061138c9190612477565b90508173ffffffffffffffffffffffffffffffffffffffff1663a9059cbb6113b261125a565b836040518363ffffffff1660e01b81526004016113d09291906124a4565b6020604051808303816000875af11580156113ef573d6000803e3d6000fd5b505050506040513d601f19601f8201168201806040525081019061141391906124f9565b611452576040517f08c379a000000000000000000000000000000000000000000000000000000000815260040161144990612572565b60405180910390fd5b7fb649c98f58055c520df0dcb5709eff2e931217ff2fb1e21376130d31bbb1c0af82826040516114839291906124a4565b60405180910390a15050565b6007818154811061149f57600080fd5b906000526020600020016000915054906101000a900473ffffffffffffffffffffffffffffffffffffffff1681565b6114d6611bf9565b600073ffffffffffffffffffffffffffffffffffffffff168173ffffffffffffffffffffffffffffffffffffffff1603611545576040517f08c379a000000000000000000000000000000000000000000000000000000000815260040161153c90612a20565b60405180910390fd5b80600260006101000a81548173ffffffffffffffffffffffffffffffffffffffff021916908373ffffffffffffffffffffffffffffffffffffffff1602179055507fd1ec9d51e81c27d7398ddf701bfe016f04dff1e442ff1f9a6aa4088ed499742a816040516115b5919061211f565b60405180910390a150565b6115c8611f51565b73ffffffffffffffffffffffffffffffffffffffff166115e661125a565b73ffffffffffffffffffffffffffffffffffffffff16148061165857506004600061160f611f51565b73ffffffffffffffffffffffffffffffffffffffff1673ffffffffffffffffffffffffffffffffffffffff16815260200190815260200160002060009054906101000a900460ff165b611697576040517f08c379a000000000000000000000000000000000000000000000000000000000815260040161168e9061264c565b60405180910390fd5b6000600660008473ffffffffffffffffffffffffffffffffffffffff1673ffffffffffffffffffffffffffffffffffffffff168152602001908152602001600020600101541461171c576040517f08c379a000000000000000000000000000000000000000000000000000000000815260040161171390612a8c565b60405180910390fd5b600073ffffffffffffffffffffffffffffffffffffffff168273ffffffffffffffffffffffffffffffffffffffff160361178b576040517f08c379a000000000000000000000000000000000000000000000000000000000815260040161178290612af8565b60405180910390fd5b600081116117ce576040517f08c379a00000000000000000000000000000000000000000000000000000000081526004016117c590612922565b60405180910390fd5b6000600660008473ffffffffffffffffffffffffffffffffffffffff1673ffffffffffffffffffffffffffffffffffffffff1681526020019081526020016000206000015414611853576040517f08c379a000000000000000000000000000000000000000000000000000000000815260040161184a90612b64565b60405180910390fd5b604051806040016040528082815260200142815250600660008473ffffffffffffffffffffffffffffffffffffffff1673ffffffffffffffffffffffffffffffffffffffff16815260200190815260200160002060008201518160000155602082015181600101559050506007829080600181540180825580915050600190039060005260206000200160009091909190916101000a81548173ffffffffffffffffffffffffffffffffffffffff021916908373ffffffffffffffffffffffffffffffffffffffff1602179055507f784c8f4dbf0ffedd6e72c76501c545a70f8b203b30a26ce542bf92ba87c248a482604051611950919061211f565b60405180910390a15050565b60066020528060005260406000206000915090508060000154908060010154905082565b611988611bf9565b600073ffffffffffffffffffffffffffffffffffffffff168173ffffffffffffffffffffffffffffffffffffffff16036119fa5760006040517f1e4fbdf70000000000000000000000000000000000000000000000000000000081526004016119f1919061211f565b60405180910390fd5b611a0381611f59565b50565b60046020528060005260406000206000915054906101000a900460ff1681565b606080600060078054905067ffffffffffffffff811115611a4a57611a49612b84565b5b604051908082528060200260200182016040528015611a785781602001602082028036833780820191505090505b509050600060078054905067ffffffffffffffff811115611a9c57611a9b612b84565b5b604051908082528060200260200182016040528015611aca5781602001602082028036833780820191505090505b50905060005b600780549050811015611bec576000611b2660078381548110611af657611af56123b6565b5b9060005260206000200160009054906101000a900473ffffffffffffffffffffffffffffffffffffffff16611cc6565b90506000811115611bde5760078281548110611b4557611b446123b6565b5b9060005260206000200160009054906101000a900473ffffffffffffffffffffffffffffffffffffffff16848381518110611b8357611b826123b6565b5b602002602001019073ffffffffffffffffffffffffffffffffffffffff16908173ffffffffffffffffffffffffffffffffffffffff168152505080838381518110611bd157611bd06123b6565b5b6020026020010181815250505b508080600101915050611ad0565b5081819350935050509091565b611c01611f51565b73ffffffffffffffffffffffffffffffffffffffff16611c1f61125a565b73ffffffffffffffffffffffffffffffffffffffff1614611c7e57611c42611f51565b6040517f118cdaa7000000000000000000000000000000000000000000000000000000008152600401611c75919061211f565b60405180910390fd5b565b600260015403611cbc576040517f3ee5aeb500000000000000000000000000000000000000000000000000000000815260040160405180910390fd5b6002600181905550565b600080600660008473ffffffffffffffffffffffffffffffffffffffff1673ffffffffffffffffffffffffffffffffffffffff1681526020019081526020016000206000015411611d4c576040517f08c379a0000000000000000000000000000000000000000000000000000000008152600401611d4390612bff565b60405180910390fd5b6000600660008473ffffffffffffffffffffffffffffffffffffffff1673ffffffffffffffffffffffffffffffffffffffff1681526020019081526020016000206001015411611dd1576040517f08c379a0000000000000000000000000000000000000000000000000000000008152600401611dc890612c6b565b60405180910390fd5b6000600660008473ffffffffffffffffffffffffffffffffffffffff1673ffffffffffffffffffffffffffffffffffffffff1681526020019081526020016000206040518060400160405290816000820154815260200160018201548152505090506000816020015142611e459190612799565b905060006d04ee2d6d415b85acef8100000000905060006301e1338090506000612710838660000151611e789190612c8b565b611e829190612cfc565b905060008282611e929190612cfc565b905060008873ffffffffffffffffffffffffffffffffffffffff166370a08231306040518263ffffffff1660e01b8152600401611ecf919061211f565b602060405180830381865afa158015611eec573d6000803e3d6000fd5b505050506040513d601f19601f82011682018060405250810190611f109190612477565b8683611f1c9190612c8b565b611f269190612c8b565b905060008582611f369190612cfc565b90508098505050505050505050919050565b60018081905550565b600033905090565b60008060009054906101000a900473ffffffffffffffffffffffffffffffffffffffff169050816000806101000a81548173ffffffffffffffffffffffffffffffffffffffff021916908373ffffffffffffffffffffffffffffffffffffffff1602179055508173ffffffffffffffffffffffffffffffffffffffff168173ffffffffffffffffffffffffffffffffffffffff167f8be0079c531659141344cd1fd0a4f28419497f9722a3daafe3b4186f6b6457e060405160405180910390a35050565b600080fd5b600073ffffffffffffffffffffffffffffffffffffffff82169050919050565b600061204d82612022565b9050919050565b61205d81612042565b811461206857600080fd5b50565b60008135905061207a81612054565b92915050565b6000602082840312156120965761209561201d565b5b60006120a48482850161206b565b91505092915050565b6000819050919050565b6120c0816120ad565b81146120cb57600080fd5b50565b6000813590506120dd816120b7565b92915050565b6000602082840312156120f9576120f861201d565b5b6000612107848285016120ce565b91505092915050565b61211981612042565b82525050565b60006020820190506121346000830184612110565b92915050565b612143816120ad565b82525050565b600060208201905061215e600083018461213a565b92915050565b6000806040838503121561217b5761217a61201d565b5b60006121898582860161206b565b925050602061219a858286016120ce565b9150509250929050565b60006040820190506121b9600083018561213a565b6121c6602083018461213a565b9392505050565b60008115159050919050565b6121e2816121cd565b82525050565b60006020820190506121fd60008301846121d9565b92915050565b600081519050919050565b600082825260208201905092915050565b6000819050602082019050919050565b61223881612042565b82525050565b600061224a838361222f565b60208301905092915050565b6000602082019050919050565b600061226e82612203565b612278818561220e565b93506122838361221f565b8060005b838110156122b457815161229b888261223e565b97506122a683612256565b925050600181019050612287565b5085935050505092915050565b600081519050919050565b600082825260208201905092915050565b6000819050602082019050919050565b6122f6816120ad565b82525050565b600061230883836122ed565b60208301905092915050565b6000602082019050919050565b600061232c826122c1565b61233681856122cc565b9350612341836122dd565b8060005b8381101561237257815161235988826122fc565b975061236483612314565b925050600181019050612345565b5085935050505092915050565b600060408201905081810360008301526123998185612263565b905081810360208301526123ad8184612321565b90509392505050565b7f4e487b7100000000000000000000000000000000000000000000000000000000600052603260045260246000fd5b600082825260208201905092915050565b7f4163636f756e74616e7420616c72656164792061646465640000000000000000600082015250565b600061242c6018836123e5565b9150612437826123f6565b602082019050919050565b6000602082019050818103600083015261245b8161241f565b9050919050565b600081519050612471816120b7565b92915050565b60006020828403121561248d5761248c61201d565b5b600061249b84828501612462565b91505092915050565b60006040820190506124b96000830185612110565b6124c6602083018461213a565b9392505050565b6124d6816121cd565b81146124e157600080fd5b50565b6000815190506124f3816124cd565b92915050565b60006020828403121561250f5761250e61201d565b5b600061251d848285016124e4565b91505092915050565b7f5472616e73666572206661696c65640000000000000000000000000000000000600082015250565b600061255c600f836123e5565b915061256782612526565b602082019050919050565b6000602082019050818103600083015261258b8161254f565b9050919050565b6000819050919050565b6000819050919050565b60006125c16125bc6125b784612592565b61259c565b6120ad565b9050919050565b6125d1816125a6565b82525050565b60006040820190506125ec6000830185612110565b6125f960208301846125c8565b9392505050565b7f4163636f756e74616e7420556e617574686f72697a6564000000000000000000600082015250565b60006126366017836123e5565b915061264182612600565b602082019050919050565b6000602082019050818103600083015261266581612629565b9050919050565b7f496e74657276616c206d7573742062652067726561746572207468616e207a6560008201527f726f000000000000000000000000000000000000000000000000000000000000602082015250565b60006126c86022836123e5565b91506126d38261266c565b604082019050919050565b600060208201905081810360008301526126f7816126bb565b9050919050565b7f4163636f756e74616e74206e6f7420666f756e64000000000000000000000000600082015250565b60006127346014836123e5565b915061273f826126fe565b602082019050919050565b6000602082019050818103600083015261276381612727565b9050919050565b7f4e487b7100000000000000000000000000000000000000000000000000000000600052601160045260246000fd5b60006127a4826120ad565b91506127af836120ad565b92508282039050818111156127c7576127c661276a565b5b92915050565b7f4e487b7100000000000000000000000000000000000000000000000000000000600052603160045260246000fd5b6000612807826120ad565b91507fffffffffffffffffffffffffffffffffffffffffffffffffffffffffffffffff82036128395761283861276a565b5b600182019050919050565b7f546f6b656e206e6f74206d616e61676564000000000000000000000000000000600082015250565b600061287a6011836123e5565b915061288582612844565b602082019050919050565b600060208201905081810360008301526128a98161286d565b9050919050565b7f45787065637465642072657475726e206d75737420626520677265617465722060008201527f7468616e207a65726f0000000000000000000000000000000000000000000000602082015250565b600061290c6029836123e5565b9150612917826128b0565b604082019050919050565b6000602082019050818103600083015261293b816128ff565b9050919050565b7f546f6b656e206d616e6167656400000000000000000000000000000000000000600082015250565b6000612978600d836123e5565b915061298382612942565b602082019050919050565b600060208201905081810360008301526129a78161296b565b9050919050565b7f456e646f7765652063616e6e6f7420626520746865207a65726f20616464726560008201527f7373000000000000000000000000000000000000000000000000000000000000602082015250565b6000612a0a6022836123e5565b9150612a15826129ae565b604082019050919050565b60006020820190508181036000830152612a39816129fd565b9050919050565b7f546f6b656e20616c726561647920616464656400000000000000000000000000600082015250565b6000612a766013836123e5565b9150612a8182612a40565b602082019050919050565b60006020820190508181036000830152612aa581612a69565b9050919050565b7f546f6b656e20616464726573732063616e6e6f74206265207a65726f00000000600082015250565b6000612ae2601c836123e5565b9150612aed82612aac565b602082019050919050565b60006020820190508181036000830152612b1181612ad5565b9050919050565b7f546f6b656e20616c7265616479206d616e616765640000000000000000000000600082015250565b6000612b4e6015836123e5565b9150612b5982612b18565b602082019050919050565b60006020820190508181036000830152612b7d81612b41565b9050919050565b7f4e487b7100000000000000000000000000000000000000000000000000000000600052604160045260246000fd5b7f45787065637465642072657475726e206e6f7420736574000000000000000000600082015250565b6000612be96017836123e5565b9150612bf482612bb3565b602082019050919050565b60006020820190508181036000830152612c1881612bdc565b9050919050565b7f4c61737420646973747269627574696f6e2074696d65206e6f74207365740000600082015250565b6000612c55601e836123e5565b9150612c6082612c1f565b602082019050919050565b60006020820190508181036000830152612c8481612c48565b9050919050565b6000612c96826120ad565b9150612ca1836120ad565b9250828202612caf816120ad565b91508282048414831517612cc657612cc561276a565b5b5092915050565b7f4e487b7100000000000000000000000000000000000000000000000000000000600052601260045260246000fd5b6000612d07826120ad565b9150612d12836120ad565b925082612d2257612d21612ccd565b5b82820490509291505056fea2646970667358221220ae5fe6a5feb5da56000559901908812997ab2e50ea57a005821b457405dfb3da64736f6c63430008180033",
  "linkReferences": {},
  "deployedLinkReferences": {}
}